:1000000071C000008EC000008CC000008AC00000DB
:1000100088C0000086C0000084C0000082C00000CC
:1000200080C000007EC000007CC000007AC00000DC
:1000300078C0000076C0000074C0000072C00000EC
:1000400070C000006EC000006CC000006AC00000FC
:1000500068C00000EEC0000064C0000062C0000084
:1000600060C000005EC000005CC000005AC000001C
:1000700058C0000056C0000054C0000052C000002C
:1000800050C000004EC000004CC000004AC000003C
:1000900048C0000046C0000044C0000042C000004C
:1000A00040C000003EC000003CC000003AC000005C
:1000B00038C0000036C0000034C0000032C000006C
:1000C00030C000002EC000002CC000002AC000007C
:1000D00028C0000026C0000024C0000022C000008C
:1000E00020C0000011241FBECFEFD1E2DEBFCDBF84
:1000F00000E00CBF12E0A0E0B2E0EEECF2E000E0C5
:100100000BBF02C007900D92A030B107D9F72AE0CB
:10011000A0E0B2E001C01D92A933B207E1F702D01E
:10012000D4C06ECF8FE080930701109208010AD0EF
:10013000FFCF82E084BD9AEF97BD80936E0083E08D
:1001400085BD0895CF93DF93F8948EEF8093370A9F
:1001500010922602109205021092040281E0809310
:10016000380AC6E0D2E086E293E0998388839B83D5
:100170008A8386E294E09D838C839F838E8386E2CC
:1001800095E0998788879B878A8786E296E09D8796
:100190008C879F878E8786E297E0998B888B9B8BD5
:1001A0008A8B86E298E09D8B8C8B9F8B8E8B86E270
:1001B00099E0998F888F9B8F8A8F86E29AE09D8F36
:1001C0008C8F9F8F8E8F8AEA8093270280932703DC
:1001D0008093270480932705809327068093270721
:1001E0008093270880932709A4DFEDB7FEB7A88185
:1001F000B98185818C93A881B981848111978C9371
:10020000A881B981838112978C93A881B981828159
:1002100013978C93888199812181FC0134972083E5
:100220008881998105979EBF8DBF7894DF91CF918A
:1002300008951F920F920FB60F9211240BB60F92D2
:100240002F933F934F935F938F939F93AF93BF935E
:10025000EF93FF938091000290910102A09102021E
:10026000B09103020196A11DB11D809300029093ED
:100270000102A0930202B093030230910502E7E26B
:10028000FAE047E35AE021E0808191810197819370
:100290009193892B19F4822F80953823220FE4172C
:1002A000F50791F730930502FF91EF91BF91AF9160
:1002B0009F918F915F914F913F912F910F900BBE26
:0E02C0000F900FBE0F901F901895F894FFCF6F
:00000001FF
