S01200004143584578616D706C652E737265636A
S113000071C000008EC000008CC000008AC00000D7
S113001088C0000086C0000084C0000082C00000C8
S113002080C000007EC000007CC000007AC00000D8
S113003078C0000076C0000074C0000072C00000E8
S113004070C000006EC000006CC000006AC00000F8
S113005068C00000D7C1000064C0000062C0000096
S113006060C000002EC60000A3C400005AC00000F7
S113007058C0000056C0000054C0000052C0000028
S113008050C000004EC000004CC000004AC0000038
S113009043C60000D9C4000044C0000042C00000B0
S11300A040C000003EC000003CC000003AC0000058
S11300B038C0000036C0000034C0000032C0000068
S11300C030C000002EC000002CC0000050C600004C
S11300D007C5000026C0000075C600004DC500001D
S11300E020C0000011241FBECFEFD1E2DEBFCDBF80
S11300F000E00CBF12E0A0E0B2E0EAEDFEE000E0B8
S11301000BBF02C007900D92A834B107D9F72CE0B9
S1130110A8E4B2E001C01D92A132B207E1F793D086
S1130120DAC66ECF2F923F924F925F926F927F9278
S11301308F929F92AF92BF92CF92DF92EF92FF92F3
S11301400F931F93CF93DF932091EC033091200CF6
S1130150F894EDB6FEB67894EEEEF3E0220FC0E02C
S1130160D2E0C20FD11D1991D881C12F18811A3A3A
S113017021F08091EC03912D91C1220FE20FF11D2A
S1130180E192F08220911F0C3091ED0340910E0416
S1130190232B242B3091EC034091200C68E08894AD
S11301A033953770441F411D742F422319F06A950B
S11301B0B9F7E8CF3093EC037093200CEEEEF3E044
S11301C0330F330FE30FF11D21913081F8942DBFCC
S11301D03EBF7894DF91CF911F910F91FF90EF90E4
S11301E0DF90CF90BF90AF909F908F907F906F9053
S11301F05F90852D4F90942D3F90632D2F90722DFD
S11302000895EEE0F2E0E80FF11D849108950102F3
S113021004081020408026E030E040E052EC61E029
S113022070E080E090E01BD307E412E0C0E4D2E089
S1130230699180E090E0F1D5C017D107C9F788EE45
S113024093E0CAD0F3CF8FE08093070110920801A6
S11302504CD041E06BE071E085E009D080E884B9DE
S113026085B1805885B984E690E0B6D0F9CFCF93B4
S1130270DF93C82FD42FE82FF0E0EE0FFF1FEE0F0F
S1130280FF1F9F0122513C4FF901A281B3816C935E
S1130290CD010197FC0170830197FC0110825597F1
S11302A0F901B183A0838C2FACDFDD2341F0982FBB
S11302B0909580911F0C982390931F0C05C09091EA
S11302C01F0C982B90931F0C8091EC03C81301C052
S11302D059DFDF91CF91089582E084BD9AEF97BDF5
S11302E080936E0083E085BD0895CF93DF93F894E7
S11302F08EEF80931F0C10920E041092ED03109257
S1130300EC0381E08093200CCEEED3E08EE095E008
S1130310998388839B838A838EE096E09D838C8374
S11303209F838E838EE097E0998788879B878A874F
S11303308EE098E09D878C879F878E878EE099E07A
S1130340998B888B9B8B8A8B8EE09AE09D8B8C8B10
S11303509F8B8E8B8EE09BE0998F888F9B8F8A8FEB
S11303608EE09CE09D8F8C8F9F8F8E8F8AEA809386
S11303700F0480930F0580930F0680930F078093DB
S11303800F0880930F0980930F0A80930F0BA4DF4B
S1130390EDB7FEB7A881B98185818C93A881B98115
S11303A0848111978C93A881B981838112978C934E
S11303B0A881B981828113978C9388819981218145
S11303C0FC01349720838881998105979EBF8DBF56
S11303D07894DF91CF9108959C019FB7F894E091B0
S11303E0EC03F0E0EE0FFF1FE15FF34F3183208356
S11303F02091ED038091200C822B8093ED039FBF0D
S113040091CE08951F920F920FB60F9211240BB63E
S11304100F922F933F934F935F938F939F93AF9339
S1130420BF93EF93FF938091480290914902A0916A
S11304304A02B0914B020196A11DB11D809348025E
S113044090934902A0934A02B0934B023091ED037A
S1130450EFE0FCE04FE15CE021E0808191810197D5
S113046081939193892B19F4822F80953823220F3D
S1130470E417F50791F73093ED03FF91EF91BF91E6
S1130480AF919F918F915F914F913F912F910F90D9
S11304900BBE0F900FBE0F901F901895AC01279ABA
S11304A02F982FEF31EE74E0215030407040E1F787
S11304B000C0000060E080E05523FCF0262F382FB8
S11304C095B1905895B99FEFE0E772E09150E04004
S11304D07040E1F700C0000095B1905895B99FEFC6
S11304E0E9E678E19150E0407040E1F700C0000097
S11304F02F5F3F4F421753071CF79FEFE3E224EFB0
S11305009150E0402040E1F700C00000D5CFFC014D
S1130510EE0FFF1FE85CFD4FA081B18111961C9284
S11305203FEFA0E7B2E03150A040B040E1F700C097
S113053000000190F081E02D3681403830E7530708
S11305406105710509F4A3C024F54038B5E25B07E1
S11305506105710509F46BC074F44036A9E05A07CB
S11305606105710509F443C0403C524161057105C0
S113057009F44DC0FBC0403438E3530761057105ED
S113058009F465C041155B446105710509F46FC048
S1130590EDC04115B2EC5B07B1E06B07710509F4DE
S11305A0A6C074F44115A6E95A076105710509F45A
S11305B07EC04115514E6105710509F488C0D6C04D
S11305C0403231EA530737E06307710509F4AFC0DD
S11305D04034A2E45A07AFE06A07710509F4B7C0D2
S11305E04039504D6340710509F0C0C090C040E4EB
S11305F053E055834483FC01EE0FFF1FE85CFD4F7D
S11306000190F081E02D308132603083AFC040EA48
S113061051E055834483FC01EE0FFF1FE85CFD4F5E
S11306200190F081E02D3081326030839FC047E635
S113063050E055834483FC01EE0FFF1FE85CFD4F3F
S11306400190F081E02D30813D7F30838FC04AE8F6
S113065050E055834483FC01EE0FFF1FE85CFD4F1F
S11306600190F081E02D3081326030837FC043E31C
S113067050E055834483FC01EE0FFF1FE85CFD4FFF
S11306800190F081E02D30813D7F30836FC044E4E0
S113069050E055834483FC01EE0FFF1FE85CFD4FDF
S11306A00190F081E02D3081326030835FC049E1F8
S11306B050E055834483FC01EE0FFF1FE85CFD4FBF
S11306C00190F081E02D30813D7F30834FC042E2C4
S11306D050E055834483FC01EE0FFF1FE85CFD4F9F
S11306E00190F081E02D3081326030833FC040E1E1
S11306F050E055834483FC01EE0FFF1FE85CFD4F7F
S11307000190F081E02D3081326030832FC047E0CA
S113071050E055834483FC01EE0FFF1FE85CFD4F5E
S11307200190F081E02D3081326030831FC043E0BE
S113073050E055834483FC01EE0FFF1FE85CFD4F3E
S11307400190F081E02D3081326030830FC041E0B0
S113075050E055834483FC01EE0FFF1FE85CFD4F1E
S11307600190F081E02D308132603083880F991F31
S1130770FC01E85CFD4FA081B18112962C9301909D
S1130780F081E02D818188698183089528E0829F2A
S1130790C0011124FC01E45BFD4F17821682108214
S11307A0118283818E7F82608383158214821282F8
S11307B00895EF92FF920F931F93CF93DF93EC0171
S11307C07B018091520290915302892BD9F180913F
S11307D05A0290915B02892B79F080916202909188
S11307E06302892B61F080916A0290916B02892BDC
S11307F019F503E010E028C001E010E025C002E094
S113080010E022C0C130D10531F0CE0101978C2314
S11308109D23892B99F4802FB9DFF801EE0FFF1F78
S1130820EE0FFF1FEE0FFF1FE45BFD4FF782E68222
S1130830C150C283802F0CC08FEF0AC08FEF08C055
S11308408FEF06C000E010E0E114F104D9F6F8CF10
S1130850DF91CF911F910F91FF90EF9008958F92A8
S11308609F92AF92BF92CF92DF92EF92FF920F933B
S11308701F93CF93DF938C014A015B016901EC0163
S1130880CC0FDD1FBC01660F771F660F771F660F45
S1130890771FC60FD71FC05FDD4F6A817B818C81B4
S11308A09D8187DFF82E6E817F818885998581DF20
S11308B0E82EF88289839601B501A401C80127DED8
S11308C0FF2034F0EE203CF0789480E090E005C006
S11308D08FEF9FEF02C08FEF9FEFDF91CF911F91BA
S11308E00F91FF90EF90DF90CF90BF90AF909F90CB
S11308F08F900895CF93DF93E82FF0E0DF01AA0FE4
S1130900BB1FAA0FBB1FAA0FBB1FA45BBD4F13962F
S11309108C9181FD49C09FB7F894DF01AA0FBB1FDA
S1130920AA0FBB1FAA0FBB1FA45BBD4F11968C91CE
S113093011971696CD91DC911797C80FD11D288178
S1130940EB0128838F5F12962C91129782231196C4
S11309508C93119714962D913C9115972150310940
S113096015963C932E9314972C9182130FC0DF019C
S1130970AA0FBB1FAA0FBB1FAA0FBB1FA45BBD4FAF
S113098013968C911397826013968C93EE0FFF1F2E
S1130990EE0FFF1FEE0FFF1FE45BFD4F83818E7F81
S11309A083839FBF81E001C080E0DF91CF910895F0
S11309B01F920F920FB60F9211240BB60F922F9322
S11309C03F934F935F936F937F938F939F93AF93D3
S11309D0BF93EF93FF93CF93DF931F92CDB7DEB70F
S11309E080911102E82FF0E0EE0FFF1FEE0FFF1FC2
S11309F0EE0FFF1FE45BFD4F938191FF08C0E09170
S1130A003802F091390281818F7D818307C0BE0154
S1130A106F5F7F4F6FDF89818093C6000F90DF91F6
S1130A20CF91FF91EF91BF91AF919F918F917F9162
S1130A306F915F914F913F912F910F900BBE0F904B
S1130A400FBE0F901F9018951F920F920FB60F9222
S1130A5011240BB60F922F933F934F935F936F9391
S1130A607F938F939F93AF93BF93EF93FF93CF9312
S1130A70DF931F92CDB7DEB780911B02E82FF0E021
S1130A80EE0FFF1FEE0FFF1FEE0FFF1FE45BFD4F86
S1130A90938191FF08C0E0913A02F0913B02818179
S1130AA08F7D818307C0BE016F5F7F4F23DF898104
S1130AB08093CE000F90DF91CF91FF91EF91BF9182
S1130AC0AF919F918F917F916F915F914F913F91E2
S1130AD02F910F900BBE0F900FBE0F901F90189583
S1130AE01F920F920FB60F9211240BB60F922F93F1
S1130AF03F934F935F936F937F938F939F93AF93A2
S1130B00BF93EF93FF93CF93DF931F92CDB7DEB7DD
S1130B1080912502E82FF0E0EE0FFF1FEE0FFF1F7C
S1130B20EE0FFF1FE45BFD4F938191FF08C0E0913E
S1130B303C02F0913D0281818F7D818307C0BE011B
S1130B406F5F7F4FD7DE89818093D6000F90DF914E
S1130B50CF91FF91EF91BF91AF919F918F917F9131
S1130B606F915F914F913F912F910F900BBE0F901A
S1130B700FBE0F901F9018951F920F920FB60F92F1
S1130B8011240BB60F922F933F934F935F936F9360
S1130B907F938F939F93AF93BF93EF93FF93CF93E1
S1130BA0DF931F92CDB7DEB780912F02E82FF0E0DC
S1130BB0EE0FFF1FEE0FFF1FEE0FFF1FE45BFD4F55
S1130BC0938191FF08C0E0913E02F0913F02818140
S1130BD08F7D818307C0BE016F5F7F4F8BDE89816C
S1130BE0809336010F90DF91CF91FF91EF91BF91E8
S1130BF0AF919F918F917F916F915F914F913F91B1
S1130C002F910F900BBE0F900FBE0F901F90189551
S1130C10CF93DF93E82FF0E0DF01AA0FBB1FAA0FE9
S1130C20BB1FAA0FBB1FA45BBD4F13968C9180FD05
S1130C3044C09FB7F894DF01AA0FBB1FAA0FBB1FC4
S1130C40AA0FBB1FA45BBD4F8C911696CD91DC916E
S1130C501797C80FD11D68838F5F12962C91129736
S1130C6082238C9314962D913C9115972F5F3F4FBF
S1130C7015963C932E93149711962C9182130FC0C2
S1130C80DF01AA0FBB1FAA0FBB1FAA0FBB1FA45BC8
S1130C90BD4F13968C911397816013968C93EE0F2E
S1130CA0FF1FEE0FFF1FEE0FFF1FE45BFD4F83815D
S1130CB08D7F83839FBF81E001C080E0DF91CF916E
S1130CC008951F920F920FB60F9211240BB60F9234
S1130CD02F933F934F935F936F937F938F939F9340
S1130CE0AF93BF93EF93FF936091C600809110027E
S1130CF08FDFFF91EF91BF91AF919F918F917F9182
S1130D006F915F914F913F912F910F900BBE0F9078
S1130D100FBE0F901F9018951F920F920FB60F924F
S1130D2011240BB60F922F933F934F935F936F93BE
S1130D307F938F939F93AF93BF93EF93FF936091B0
S1130D40CE0080911A0264DFFF91EF91BF91AF91C1
S1130D509F918F917F916F915F914F913F912F91CF
S1130D600F900BBE0F900FBE0F901F9018951F92FF
S1130D700F920FB60F9211240BB60F922F933F933D
S1130D804F935F936F937F938F939F93AF93BF938F
S1130D90EF93FF936091D6008091240239DFFF9195
S1130DA0EF91BF91AF919F918F917F916F915F91DF
S1130DB04F913F912F910F900BBE0F900FBE0F904C
S1130DC01F9018951F920F920FB60F9211240BB615
S1130DD00F922F933F934F935F936F937F938F93D0
S1130DE09F93AF93BF93EF93FF93609136018091EC
S1130DF02E020EDFFF91EF91BF91AF919F918F91E2
S1130E007F916F915F914F913F912F910F900BBE06
S1130E100F900FBE0F901F901895EF92FF920F93B3
S1130E201F93CF93DF938C01F62EFC01EE0FFF1F6F
S1130E30880F991F880F991F880F991FE80FF91FB2
S1130E40E05FFD4FE180CE2DD0E0FE01EE0FFF1FED
S1130E50EE0FFF1FEE0FFF1FE45BFD4F838180FF4A
S1130E6023C0F801EE0FFF1FE85CFD4F0190F081F5
S1130E70E02D818180628183FE01EE0FFF1FEE0F62
S1130E80FF1FEE0FFF1FE45BFD4F838180FF0CC04B
S1130E90CC0FDD1FCC0FDD1FCC0FDD1FC15BDD4F81
S1130EA041D9988190FDFCCF6F2D8E2DB1DE000FBE
S1130EB0111FF801E85CFD4F0190F081E02D818164
S1130EC08062818381E090E0DF91CF911F910F9147
S10D0ED0FF90EF900895F894FFCF0F
S1130EDA0F040F050F060F070F080F090F0A0F0B50
S1130EEA0000AC0340006C03400000002C034000E7
S1130EFAEC0240000000CC022000AC0220000000FA
S1130F0A8C0220006C022000C000C800D00030010E
S10B0F1A48656C6C6F210A00AC
S9030000FC
